:020000040000FA
:100000008A110D28FF3FFF3FFE00030EF300040896
:10001000F4000A08F5008A11BD2E8A11D22FA9001A
:100020000530A0005B087E208A11BE3E84002908AE
:1000300080000530A0005B087E208A11BF3E84004E
:1000400023088000840A240880002508013EA700B8
:1000500026080318013EA8000530A0005B087E209A
:10006000C13E840027088000840A28088000DB0A3B
:1000700008008312DF0803190800D0010530A00032
:1000800050087E208A11C13E840001308313800213
:10009000840F0030031C8003800284030008840A5C
:1000A0000004031D75280530A00050087E208A1129
:1000B000BF3E840000088316E400840A0008E500BF
:1000C0008C208A117E208A11C13E84008316640828
:1000D0008000840A650880008C208A117E20BE3E44
:1000E000840000088A1100218A118312043003134E
:1000F000D00A5002031C3E28DF033928A200A101C8
:1001000020082218A1070310A00D0310A20CA208BA
:10011000031D80282108080005308312A000500824
:1001200008008A11862E8A11892E8A118B2E8A1137
:100130008D2E8A11922E8A11942E8A11992E8A114F
:100140009B2E8A11A02E8A11292B8A112C2B8A1101
:100150002E2B8A11302B8A11352B8A11372B8A11BD
:100160003C2B8A113E2B8A11432B8A1131298A118B
:100170004D298A116E298A118F298A11A4298A1181
:10018000DC298A11BF298A11AB2F8A119F2F8A116E
:10019000C52F8A11C52F8A11AC2F8A11C52F8A113C
:1001A000AC2F64008001840A04060319003404069D
:1001B000D228FF3FFF3FFF3FFF3FFF3FFF3FFF3F93
:1001C000FF3FFF3FFF3FFF3FFF3FFF3FFF3FFF3F3F
:1001D000FF3FFF3FFF3FFF3FFF3FFF3FFF3FFF3F2F
:1001E000FF3FFF3FFF3FFF3FFF3FFF3FFF3FFF3F1F
:1001F000FF3FFF3FFF3FFF3FFF3FFF3FFF3FFF3F0F
:10020000FF0001308A007F08820705298A153E2EEB
:100210008A11442A8A11832F8A110E296D08A6009B
:10022000A7016C08A000A10183165F088312A30038
:1002300083165E088312A20011228A110A30A200DE
:10024000A30111228A112108A9002008A8008D24E9
:100250008A112708D6002608D5008316DE01DF01A3
:10026000CF2958085602031D372957085502031C89
:1002700043295208E3005108E200DD01DD0A83163C
:100280001E30E001CB298316E001E101D401D50144
:1002900083120430E201E300DC2968082A228A1173
:1002A000031C5D290230DD006508E3006408E200FC
:1002B0008316E001E101D401CD298316630883127E
:1002C0005602031D6729831662088312550203181C
:1002D000DC290330DD0083160230C92968082A2290
:1002E0008A11031889290330DD008316E001E00A32
:1002F000E101831258085602031D80295708550250
:100300000318852903308316CC298316D401D40A17
:10031000CD29680837228A1103185429A1296808B1
:100320002A228A11031C752968082A228A11031CB3
:10033000A129680837228A11031CA1290230DD0097
:1003400058290430DD00A929680837228A110318CA
:10035000B4298316E001E101831256085A02031DF5
:10036000802955085902802968082A228A11031C0D
:100370007329680837228A1103189E29732958089F
:100380005602031DC5295708550203183D29831637
:100390000F30E001E00AE101D400D501DC2983122D
:1003A0005D088400073004020318DC2900308A004D
:1003B0000310040DB53E8200831256088316E30035
:1003C000831255088316E20083125D080319EA2997
:1003D0000615EB290611071E0F2A56085504031DA2
:1003E0000B2A061686118316DA0A0319DB0A5D0842
:1003F0005B02031DFD295C085A02031C0F2A8312AD
:100400006F0803190F2AF601F60A83165D08DB0050
:100410005C08DA000F2A8316DA01DB01F6016400BA
:100420000800A401A501201C1B2A2208A407031808
:10043000A50A2308A5070310A20DA30D0310A10C04
:10044000A00C21082004031D132A2508A10024085C
:10045000A0000800FE3EAD0069080318013EFF3E03
:10046000AE005602031D08002D0855020800023E8A
:10047000AD0069080318013EAE0056082E02031DA8
:10048000080055082D0208005C0B0800552C2208B6
:10049000153A031D682B23088312A00000306E2438
:1004A0008A11031323088312E800E9018316240844
:1004B0008312A00001306E248A11031324088312D2
:1004C000EA00831625088312A00002306E248A11E8
:1004D00003132508FA0026088312A00003306E24B7
:1004E0008A11031326088312ED008316270883124E
:1004F000A00004306E248A11031327088312EC0035
:10050000831628088312A00005306E248A11031375
:1005100028088312E000E101831629088312A00055
:1005200006306E248A11031329088312EE00831605
:100530002A088312A00007306E248A1103132A08A8
:10054000F800F9010310F80DF90D2B088312A00033
:1005500008306E248A1103132B088312E400E5018E
:100560000310E40DE50D83162C088312A00009305A
:100570006E248A1103132C088312E600E70103108E
:10058000E60DE70D83162D088312A0000A306E24B5
:100590008A1103132D088312EB0083162E08831291
:1005A000A0000B306E248A1103132E088312EF0073
:1005B0002030CF000F30CE004E08A03E840000084F
:1005C000A0004F086E248A11831217300313CF0A3C
:1005D000CE0A4E02031CDC2A0A30D5248A118D244F
:1005E0008A1100302702043003192602031C0B2B4A
:1005F0006908DA006808D9000430D9070318DA0A54
:100600006908D8006808D700FC30D7070318D80A53
:10061000FF30D8074E2B0A30D5248A118D248A1139
:100620002708DA002608D9006808D9070318DA0A6B
:100630006908DA07D8006808D7000A30D5248A117B
:100640008D248A112608D7022708031CD803D80254
:100650004E2B8316DC01332B1430312B7830312BA9
:10066000F0308316DC00DD015A2B6830382BE03087
:100670008316DC0001304C2B58303F2BD0308316D2
:10068000DC0002304C2B48308316DC0003304C2B4E
:10069000B0308316DC000430DD005A2B6F08840074
:1006A000093004020318482B00308A000310040D9F
:1006B000A33E8200A83065248A11563065248A1131
:1006C000023065248A11003065248A110030752BB0
:1006D000A83065248A117F3065248A110230652490
:1006E0008A11223065248A114B3065248A11B7247F
:1006F0008A115E2C2208023A031D5E2CA830652464
:100700008A11573065248A11153065248A116808CA
:1007100065248A116A0865248A117A0865248A1179
:100720006D0865248A116C0865248A1160086524A7
:100730008A116E0865248A117908AE007808DC24D5
:100740008A1165248A116508AE006408DC248A11C8
:1007500065248A116708AE006608DC248A116524C6
:100760008A116B0865248A116F0865248A1120306C
:10077000CC01CD01CF004F08BD248A110313CB005B
:10078000CC070318CD0A4B0865248A112830CF0AFC
:100790004F02031CBB2B6708AE006608AD000310B8
:1007A000AE0CAD0C6508B0006408AF000310B00CCF
:1007B000AF0C7908B2007808B1000310B20CB10C8C
:1007C0006A087A07B300B401B40D6D083307B500A9
:1007D0000030031801303407B6006C083507B70045
:1007E0000030031801303607B8006E083707B9002B
:1007F0000030031801303807BA0031083907BB0050
:1008000032080318320A3A07BC002F083B07BD0024
:1008100030080318300A3C07BE002D083D07BF0012
:100820002E0803182E0A3E07C0006B083F07C100C0
:100830000030031801304007C2006F084107C300B1
:100840000030031801304207C40068084307C500A0
:1008500069080318690A4407C60060084507C7000D
:1008600061080318610A4607C8004C084707C90019
:100870004D0803184D0A4807CA004908143ECC0029
:100880004A080318013E013ECD004C08752BA830E4
:1008900065248A117F3065248A11023065248A110B
:1008A000113065248A113A30752B83162108163AC7
:1008B0000319472A013A03197A2B472CF030831287
:1008C00003178D0003138C12B72C8312A00083161C
:1008D000981C672C8312200899000800A100831639
:1008E00003178C186F2C83120313210803178D0034
:1008F0000313200803178C003F3083168C05031068
:100900008B1B031455308B130C158D00AA308D00F2
:100910008C140C1103188B170800AB01AC012708CD
:1009200026040319B22CAA01AA0AA71B9B2C0310A8
:10093000A60DA70D942C0310AB0DAC0D27082902B2
:10094000031DA42C26082802031CAE2C2608A8028E
:100950002708031CA903A9022B140310A70CA60C3B
:10096000AA0B9B2C2C08A7002B08A6000800DC0172
:10097000F7018316D801D90108000313A000640011
:10098000831603178C18BF2C831203132008031738
:100990008D003F3083168C050C1403100C180314C3
:1009A0000318013083120C080800A600A70169088B
:1009B000A9006808A8000800AD000310AE0CAD0C3B
:1009C0002D0808002F3083168500013086009030F6
:1009D00087008312850186018701940197018316A0
:1009E00094019C0197019D018312031787018801DF
:1009F0000F308316031381008E010130950096019C
:100A000060308F0090010330910050309F008030A3
:100A100083129F0081018E018F019001FA309013A3
:100A2000101390161016901110119010831692004A
:100A3000831224301217921212129215921012146D
:100A400012158316980020308312980019308316EF
:100A5000990018128312181698170317890101308C
:100A600009160915891009100313A301A30AA4018B
:100A7000A501A50AA6018A110F208A110A30A30038
:100A80000330A401A501A50AA6018A110F208A112D
:100A90000A30A3000530A401A501A50AA6018A1108
:100AA0000F208A113230A3000730A401A501A50A46
:100AB000A6018A110F208A11233083168C0004307E
:100AC0008D0083128C018D0150308B000030061692
:100AD00007148A11BD248A110313E8000530E901C7
:100AE0008A11BD248A110313E0000130E1018A114B
:100AF000BD248A110313EA0002308A11BD248A1131
:100B0000FA0003308A11BD248A110313ED0004306A
:100B10008A11BD248A110313EC0008308A11BD2408
:100B20008A110313E4000930E5010310E40DE50D1B
:100B30008A11BD248A110313E6000A30E70103106D
:100B4000E60DE70D8A11BD248A110313EB000B306B
:100B50008A11BD248A110313EF0007308A11BD24C6
:100B60008A11F800F9010310F80DF90D0313680A52
:100B70006904031DBE2D5030E800E9016A08FF3A00
:100B8000031DC62D7A08FF3A0319CC2DEA08031D70
:100B9000CF2DFA08031DCF2DC830EA00FA016108F5
:100BA00060040319D72D600A6104031DDA2D50304B
:100BB000E000E1010A30A600A7016908A900680861
:100BC000A8008A118D248A110030270204300319ED
:100BD0002602031CFE2D6908DA006808D9000430DB
:100BE000D9070318DA0A6908D8006808D700FC306A
:100BF000D7070318D80AFF30D807252E0A30A600D9
:100C0000A7016908A9006808A8008A118D248A1123
:100C10002708DA002608D9006808D9070318DA0A75
:100C20006908DA07D8006808D7000A30A600A701CB
:100C30006908A9006808A8008A118D248A1126086D
:100C4000D7022708031CD803D8026F08FF3A0319FC
:100C5000EF010317050800300516851105158510ED
:100C600005148A1578278A112108D2002008D1009E
:100C70005208D4005108D3006B030319642E64306A
:100C8000A900AA01AB015308A0005408A100A201C9
:100C90006A08A300A401A5018A1551278A1120081A
:100CA000AC002108AD002208AE008A1518278A1171
:100CB0002A088316D300831229088316D2007A08E3
:100CC000D2070318D30A722E83160430D201D30040
:100CD000831253088316D202831254088316031C0E
:100CE000D303D30283125408A1005308A000831633
:100CF00053088312A300831652088312A2008A1598
:100D0000A0278A11F03003178D00AB2E8316DC016B
:100D1000902E14308E2E78308E2EF0308316DC001C
:100D2000DD01B82E6830952EE0308316DC000130EE
:100D3000A92E58309C2ED0308316DC000230A92E0C
:100D400048308316DC000330A92EB0308316DC0057
:100D50000430DD00B82E03136F088400093004024C
:100D60000318A52E00308A000310040D913E820066
:100D70008B178A1139208A11B92E831603130D1D82
:100D8000D82E83120D1DD82EFF3003178D008F0033
:100D90000B30F2002630F1006630F000F00BCE2E62
:100DA000F10BCE2EF20BCE2ED52E831203130D1186
:100DB00083168C1CEE2E83128C1CEE2E8C10DF0AF8
:100DC000003083165902643003195802031CEB2EBD
:100DD00075278A11EE2ED80A0319D90A83168C1E9C
:100DE0004E2F83128C1E4E2F8C128316D801D901E0
:100DF0007708A03E840083121A0883138000F70846
:100E0000031D142F8316D601D7017708A03E840056
:100E10000008A13A031D4A2F7708A03E840000086D
:100E2000D600D701F70A4E2F770B242F7708A03E64
:100E300084002130000203184A2F77087C278A118A
:100E4000D6070318D70A122F7708023A031D2D2F51
:100E50007708A03E840041301A2F03307702031C2C
:100E6000412F83162208023EF000003003180130A3
:100E7000F100803A803C031D3F2F70087702031C6D
:100E80001D2F77087C278A115606031D4A2F8312CF
:100E9000DC01DC0AF7018316D601D7018B180B1E83
:100EA0006C2F8B108316DE0A0319DF0A8312680881
:100EB000FE3EF00069080318013EFF3EF1005602B5
:100EC000031D642F70085502031C692F0612861536
:100ED0006C2F08300616860675088A007408840090
:100EE000730E8300FE0E7E0E09008312DC01F701F3
:100EF0008316D801D9010800A03E8400831300089E
:100F00008316031308005D0803190800831661089F
:100F100060040319952F54088312E2070318E30AAB
:100F2000831655088312E307B92F54088312E2028F
:100F3000831655088312031CE303E302B92F6308E9
:100F40006502031DA52F62086402031CC52F6508F6
:100F5000E3006408E200C52F63086702031DB22F97
:100F600062086602031CC52F6708E3006608E200FA
:100F7000C52F5D088400073004020318C52F003018
:100F80008A000310040DC33E820056085A02031D56
:100F9000CB2F55085902031808006708E3006608BC
:100FA000E20008005130F601F7018313840060303D
:100FB0008A11D1208A11A0308400E4308A11D12016
:100FC0009630E0000430E101E201E300C830E400C3
:100FD000BE30E501E6006430E701E800DD30E901FC
:100FE000EA000130EB00EC000F30ED006930EE005C
:100FF000B430F800F90183018A11E22CFF3FFF3F72
:10100000FF3FFF3FFF3FFF3FFF3FFF3FFF3FFF3FF0
:10101000FF3FFF3FFF3FFF3FFF3FFF3FFF3FFF3FE0
:10102000FF3FFF3FFF3FFF3FFF3FFF3FFF3FFF3FD0
:10103000FF3FFF3FFF3FFF3FFF3FFF3FFF3FFF3FC0
:101C7000FF3FFF3FFF3FFF3FFF3FFF3F0030782721
:101C80008A152108D2002008D100F608031D972EDE
:101C90005D080319632E5D08053A031D7A2E580866
:101CA0005602031D552E5708550203185B2E0430AB
:101CB000DD01E201E30063085202031D612E6208A8
:101CC00051020318732E61085202031D692E600829
:101CD000510203186F2E6108D4006008952E520837
:101CE000D4005108952E6308D4006208D300063052
:101CF000DD00A92E63085202031D802E62085102E6
:101D00000318922E58085602031D882E57085502B4
:101D1000031C8D2E0530DD00632E0430DD01E20151
:101D2000E300632E6308D4006208D300A92E79086B
:101D30005202031D9D2E780851020318A32E52084B
:101D4000D4005108A62E7908D4007808D3000612D2
:101D500086156808023EB500B300B4013408560287
:101D6000031DB42E33085502031CBA2E6108D4009B
:101D70006008D3006B030319E02E6430A900AA01A8
:101D8000AB015308A0005408A100A2016A08A300F7
:101D9000A401A50151278A152008AC002108AD0037
:101DA0002208AE0018278A152A088316D30083124A
:101DB00029088316D2007A08D2070318D30AEF2E17
:101DC00009308316D2000430D300831253088316DF
:101DD000D202831254088316031CD303D302530880
:101DE0008312A100831652088312A0005408A30096
:101DF0005308A200A0278A153508B300B40134089F
:101E00005602031D052F33085502031C162F1E30E2
:101E1000DE0A5E0203180E2F86140800C8305E0228
:101E20000318142F86100800DE010800DE01122FAF
:101E3000AF01B001B1012B082A04290403194A2F6C
:101E4000B201B20AAB1B292F0310A90DAA0DAB0DCD
:101E5000212F0310AF0DB00DB10D2B082E02031D65
:101E6000372F2A082D02031D372F29082C02031CA7
:101E7000452F2908AC022A08031C2A0FAD022B08A3
:101E8000031C2B0AAE022F140310AB0CAA0CA90CD6
:101E9000B20B292F2F08A9003008AA003108AB0087
:101EA0000800A601A701A801201C642F2308A6078B
:101EB000240803110318240A031DA707250803118A
:101EC0000318250A031DA8070310A30DA40DA50DD3
:101ED0000310A20CA10CA00C220821042004031D55
:101EE000542F2608A0002708A1002808A2000800F7
:101EF0000313A400A2000310A20D0310A20D1F08DB
:101F0000E33922049F001F14852F862F640083125B
:101F100003139F149F188A2F1F1083161E08831205
:101F2000A500A6011E08A200A301A300A201220889
:101F3000A5042308A6042608A1002508A00008007F
:101F4000AB01AB01AB08031DA92F2108A900200894
:101F5000AC2F2308A9002208A8000310A80DA90D82
:101F60000310A80DA90D87112B08A4000F30A5019F
:101F7000FF000310A40DA50DFF0BB92F00302404A2
:101F8000A60030302504A7002608A8042708A904C5
:101F9000AA0107116400831203132A0AA400290866
:101FA000A6002808A500D72F0310A50DA60DA40B89
:101FB000D42FA61FDF2F831203138714E22F83125F
:101FC0000313871064008312031307156400831240
:101FD00010300313AA0A2A02031CC92F64008312BB
:101FE000023003138715AB0A2B02031CA22F6400D7
:101FF00083120313071064008312031307140800ED
:02400E00E23F8F
:104200006400C80000000B00040050005A00870042
:104210004000320000000000FF00FF00FF00FF0030
:10422000FF00FF00FF00FF00FF00FF00FF00FF0096
:10423000FF00FF00FF00FF00FF00FF00FF00FF0086
:10424000410046004D002D003100300031003600A5
:10425000FF00FF00FF00FF00FF00FF00FF00FF0066
:10426000FF00FF00FF00FF00FF00FF00FF00FF0056
:10427000FF00FF00FF00FF00FF00FF00FF00FF0046
:10428000FF00FF00FF00FF00FF00FF00FF00FF0036
:10429000FF00FF00FF00FF00FF00FF00FF00FF0026
:1042A000FF00FF00FF00FF00FF00FF00FF00FF0016
:1042B000FF00FF00FF00FF00FF00FF00FF00FF0006
:1042C000FF00FF00FF00FF00FF00FF00FF00FF00F6
:1042D000FF00FF00FF00FF00FF00FF00FF00FF00E6
:1042E000FF00FF00FF00FF00FF00FF00FF00FF00D6
:1042F000FF00FF00FF00FF00FF00FF00FF00FF00C6
:10430000FF00FF00FF00FF00FF00FF00FF00FF00B5
:10431000FF00FF00FF00FF00FF00FF00FF00FF00A5
:10432000FF00FF00FF00FF00FF00FF00FF00FF0095
:10433000FF00FF00FF00FF00FF00FF00FF00FF0085
:10434000FF00FF00FF00FF00FF00FF00FF00FF0075
:10435000FF00FF00FF00FF00FF00FF00FF00FF0065
:10436000FF00FF00FF00FF00FF00FF00FF00FF0055
:10437000FF00FF00FF00FF00FF00FF00FF00FF0045
:10438000FF00FF00FF00FF00FF00FF00FF00FF0035
:10439000FF00FF00FF00FF00FF00FF00FF00FF0025
:1043A000FF00FF00FF00FF00FF00FF00FF00FF0015
:1043B000FF00FF00FF00FF00FF00FF00FF00FF0005
:1043C000FF00FF00FF00FF00FF00FF00FF00FF00F5
:1043D000FF00FF00FF00FF00FF00FF00FF00FF00E5
:1043E000FF00FF00FF00FF00FF00FF00FF00FF00D5
:1043F000FF00FF00FF00FF00FF00FF00FF00FF00C5
:08400000FF3FFF3FFF3FFF3FC0
:00000001FF
