:020000040000FA
:100000008A110D28FF3FFF3FFE00030EF200040897
:10001000F3000A08F4008A155E2F8A11D62E8F236A
:100020008A11831201300313D60169228A116030CC
:10003000D6008830D70048228A11B8238A11692255
:100040008A11E430D6008830D700482A8F238A11DD
:10005000831201300313D60169228A117230D6004F
:100060008830D70048228A11B8238A1169228A1160
:10007000D430D6008830D700482A8F238A11E43044
:1000800083120313D6008830D70048228A11B82380
:100090008A1169228A11DA015A08DA3E8400831330
:1000A00000085B208A11831208300313DA0A5A020F
:1000B000031808004C28D80086175808C0228A1157
:1000C0000730D7007D30D600D60B6428D70B6428C4
:1000D00008008F238A11DD238A1169228A11F323F4
:1000E0008A1148228A11B8238A1169228A11DC30C8
:1000F000D6008830D700482A8A15EC268A118F232B
:100100008A11831201300313D60169228A11F43057
:10011000D6008830D70048228A11B8238A11692274
:100120008A116930D6008830D700482AE40084005C
:100130000F3004020318080009308A000310040D70
:10014000823E820008000830CA0A4A020318CA0127
:1001500002303F228A11B8238A1169228A110310C2
:100160004A0DCA3EAA238A11482A64085F3ED72353
:100170008A1100278A11E2006408393E8400831343
:100180000008E300620863026408031CD0285F3E95
:10019000D7238A1100278A11E823831380000800DF
:1001A000393E8400000AE8238A11800002303F2291
:1001B0008A11B8238A1169228A116408CA238A1114
:1001C00073228A11EE238A1148228A1183120313A3
:1001D0000310640DA03EAA238A11482A4B08031974
:1001E000F428CB01CB0A080002303F228A11B82341
:1001F0008A1169228A11CB0ABD238A11B2238A117E
:10020000482A09304902031C08290930C90008009E
:1002100002303F228A11B8238A1169228A11C90A41
:100220000310490DB63EAA238A11482A5308FF3A03
:10023000031D1D29FF30D30008000230D30A3F22DE
:100240008A11B8238A1169228A115308DB00DC0164
:1002500073228A11EE238A1148228A11C3238A113C
:10026000482AE40084000F30040203180800093013
:100270008A000310040D643E82000800E501E50ACF
:100280006508283E840087300318013EFF008A116C
:1002900000278A119F238A11031C4029CB01C90121
:1002A000C329E501E50A6508123E8400873003187A
:1002B000013EFF008A1100278A119F238A1103182B
:1002C0004E295329E501E50A65083E3E8400873042
:1002D0000318013EFF008A1100278A119F238A110B
:1002E00003184E296429E501E50A6508493E8400A2
:1002F00087300318013EFF008A1100278A119F23CF
:100300008A1103184E297529E501E50A6508333E6F
:10031000840087300318013EFF008A1100278A11EC
:100320009F238A1103184E298629E501E50A6508ED
:10033000543E840087300318013EFF008A110027D5
:100340008A119F238A1103184E299729E501E50A8E
:1003500065081D3E840087300318013EFF008A11A6
:1003600000278A119F238A1103184E29A8294A08B9
:100370008400083004020318C32909308A000310DE
:10038000040DA03E8200162B6408393E84008313BE
:100390000008E20064086A3EE2238A1100278A11FD
:1003A000E300620863026408031CDF296A3EE2235B
:1003B0008A1100278A11D123831380000800393E57
:1003C000840083130008FF3ED1238A11800002308D
:1003D0003F228A11B8238A1169228A116408CA232C
:1003E0008A1173228A11EE238A1148228A118312FC
:1003F00003130310640DA03EAA238A11482ACB08D8
:10040000031D042ACB01080002303F228A11B823C1
:100410008A1169228A11FF30CB07BD238A11B223CA
:100420008A11482AC908031D172AC9010800023089
:100430003F228A11B8238A1169228A11FF30C90725
:100440000310490DB63EAA238A11482AD308031D7A
:100450002B2AD30108000230D3033F228A11B8238C
:100460008A1169228A115308DB00DC0173228A1188
:10047000EE238A1148228A11C3238A11482ADA00FE
:10048000D60169228A114E30D6008830D700482A1A
:1004900086175708FF00560884008A1100278A1122
:1004A00000380319602A5708FF00560884008A1193
:1004B00000278A11C0228A11D60A0319D70A492AAD
:1004C0000730D9007D30D800D80B642AD90B642AB4
:1004D0000800D7008613570B702A5608803EC02AA2
:1004E0005608C03EC02A04308617DD01E100872A85
:1004F0001030DE0027307F2AE830DE000330DF00D6
:10050000952A6430842A0A30DE00DF01952A6108CA
:10051000013A0319832A033A0319812A013A03197C
:100520007C2A073A0319782A952A5F08D5005E08C5
:10053000D4005C08D7005B08D600EC228A1154086E
:10054000E000DD08031960080319AC2A6008303E9A
:10055000C0228A11DD01DD0A6008D400D5015F08E0
:10056000D7005E08D600D3228A115408DB02550852
:10057000031CDC03DC02E10B872A5B08303EC02A47
:1005800083120313D5000D30D400D40BC52A831277
:100590000313550E0F3985000617061355088500FD
:1005A000061706130800D801D901541CDD2A560885
:1005B000D8070318D90A5708D9070310D60DD70D45
:1005C0000310D50CD40C55085404031DD52A590822
:1005D000D5005808D4000800D901DA0155085404A0
:1005E0000319112BD801D80AD51BFA2A0310D40DF0
:1005F000D50DF32A0310D90DDA0D55085702031D46
:10060000032B54085602031C0D2B5408D602550820
:10061000031CD703D70259140310D50CD40CD80BE4
:10062000FA2A5A08D5005908D4000800A130DD0183
:10063000DE0172238A11163072238A11153072235B
:100640008A11DF01DF0A5F08393E84008313000846
:1006500072238A115F08393E84000008DD07031801
:10066000DE0A0B30DF0A5F02031C232B4B087223C8
:100670008A114B08DD070318DE0A490872238A1124
:100680004908DD070318DE0ADF015F08DA3E84004F
:10069000000872238A115F08DA3E84000008DD0733
:1006A0000318DE0A0830DF0A5F02031C452BCC303A
:1006B000DD070318DE0A5D0872238A11CD01CD0A19
:1006C0007A238A11063083120313DC001330DB0017
:1006D000B130DA00DA0B6A2BDB0B6A2BDC0B6A2BEE
:1006E000712B0800D4008316981C732B83125408B6
:1006F000990008008F238A11DD238A1169228A114B
:10070000F3238A1148228A11023083120313D60080
:1007100069228A114130D6008930D700482A8312D5
:10072000013003138613C0228A110330D70097309B
:10073000D600D60B992BD70B992B9E2B0800E200E5
:100740006508393E84006208831380000B30E50A97
:1007500065020800840083130008D600840A00089C
:10076000D70008000008D600840A0008D700080057
:10077000831202300313D601080003104B0D693EAB
:10078000840083130800373083120313D6008930A6
:10079000D7000800393E840083130008DB00DC0129
:1007A0000800E2006408393E840062080800840002
:1007B00087300318013EFF00080002308312031344
:1007C000D6000134840087300318013EFF00080082
:1007D000E2006408393E8400620808005530D60003
:1007E0008830D70008003C30D6008930D700080098
:1007F00095019601970107309F0083169A019B018E
:100800009C019F018501831285013F30831686007C
:1008100083128601083083168E0083128E018F01A9
:1008200090011930901610169011101190100C10A4
:100830001010831692008312920112179212121254
:100840009215921012148C101215831699008312AF
:100850009801831698018312981283169813181220
:100860001815831218168316981683129817831674
:10087000810183128C0183168C018C1683128C12D9
:1008800083160C148C148B010B178A117C208A118F
:10089000063083120313E8001330E700B130E6009E
:1008A000E60B502CE70B502CE80B502C572C8316E2
:1008B00070300313EE01ED006E08DA3E84006D081F
:1008C0008A151D268A11831380007830EE0AED0AFE
:1008D0006D02031C5C2C5A08FF3A031D732C8A110D
:1008E0000F208A11722C8A113D208A110630E800EF
:1008F0001330E700B130E600E60B7C2CE70B7C2CD4
:10090000E80B7C2C832CA030831603139B008B17E1
:10091000831251080319E02CD52C2208023A031D3A
:10092000DD2C8A1169208A1183120313CD01DD2C7D
:100930002208153A031DDD2CED01CD018A154E2646
:100940008A1183160313EE016E08233E840083137D
:1009500000088312E60083166E083A3E8400831274
:100960006608800083160A30EE0A6E02031CA42C6F
:1009700083122D08CB002E08C900CC01CC0A8316A7
:10098000EE016E082F3E840000088312E6008316F5
:100990006E08E23E840083126608800083160830E9
:1009A000EE0A6E020318DD2CC12C2108563A0319F9
:1009B0008D2C013A0319982CDD2C8A1501268A11F9
:1009C0006D080319112DCD08031D002DA1308A11CA
:1009D00072238A1117308A1172238A1102308A1108
:1009E00072238A1100308A1172238A11BA308A1157
:1009F00072238A11CD01CD0ACE018C12D001052DB2
:100A00004E0B052DCE01CD01C80A0A304802031C49
:100A1000A12E8A1532268A11033083120313C800CF
:100A2000102D061A5C2E4C080319192DCC01CF018C
:100A30001A2DCF0A0F304F020318CF018A118F23CE
:100A40008A11831201300313D6018A1169228A1197
:100A5000BD2DFC30D6008830D7008A1148228A117B
:100A6000C92D7530D6008730D7008A1148228A11E7
:100A7000C92D7F30D6008730D7008A1148228A11CD
:100A8000C92D3330D6008830D7008A1148228A1108
:100A9000C92DEB30D6008730D7008A1148228A1141
:100AA000C92DF430D6008730D7008A1148228A1128
:100AB000C92D2A30D6008830D7008A1148228A11E1
:100AC000C92D0630D6008830D7008A1148228A11F5
:100AD000C92D2130D6008830D7008A1148228A11CA
:100AE000C92D4530D6008830D7008A1148228A1196
:100AF000C92D3C30D6008830D7008A1148228A118F
:100B0000C92D0F30D6008830D7008A1148228A11AB
:100B1000C92D1830D6008930D7008A1148228A1191
:100B2000C92DE230D6008730D7008A1148228A11B9
:100B3000831202300313D6018A1169228A118316A7
:100B40006208FF3A0319AC2DE2308312D600D701B8
:100B50008A1148228A11C92DFD308312D6008730B0
:100B6000D7008A1148228A11C92DB430D6008830A6
:100B7000D7008A1148228A11C92D4F0884000F30EE
:100B800004020318C92D09308A000310040D463EE3
:100B9000820083120313CF08031DE12D0230D6011A
:100BA0008A1169228A1103104A0DCA3E84008313F8
:100BB0000008D600840A0008D7008A1148228A114A
:100BC000742E0B304F024F0803180F2E03190E2EF0
:100BD0000230D6018A1169228A114F08393E8400F9
:100BE00083130008DB00DC018A1173228A1155305F
:100BF000D6008830D7008A1148228A118312031345
:100C000003104F0DA03E840083130008D600840A11
:100C10000008D7008A1148228A11742E4F080B3A17
:100C2000031D252E0230D6018A1169228A11031074
:100C30004B0D693E840083130008D600840A000827
:100C4000D7008A1148228A11742E4F080C3A031DCE
:100C50003C2E0230D6018A1169228A110310490DF7
:100C6000B63E840083130008D600840A0008D7002B
:100C70008A1148228A11742E4F080E3A031D742ED1
:100C80000230D6018A1169228A115308DB00DC0187
:100C90008A1173228A115530D6008830D7008A1104
:100CA00048228A11373083120313D6008930D700C7
:100CB0008A1148228A11742E861E861D672ECC0842
:100CC000031D672E4F088A1196208A11742E861AEA
:100CD0008619722ECC08031D722E4F088A113121FD
:100CE0008A11742E8316EC01831606300313EC0A66
:100CF0006C02031C862E41308312E700EE30E600C2
:100D0000E60B802EE70B802E64008F2EC3308312FB
:100D1000E700CD30E600E60B8B2EE70B8B2E83121F
:100D200003134D0BA02E06304E02031CA12ECE0144
:100D3000CD018A1126208A1183120313D001A12E1E
:100D4000CE014F080E3A031DD42E1018A92E0C10F8
:100D50001014520853060319882C10105308D4009D
:100D60000130D501D601D701DB01DA007130D9009D
:100D7000E830D8008A15A4268A1155088316EB009E
:100D8000831254088316EA006B088312E700831667
:100D90006A088312E600E609E7096608C4006708E6
:100DA000C5005308D200882C1010882C2030F50183
:100DB000F601F701F8018313840054308A150526E3
:100DC0008A11DA308400EA308A1505268A11DA3071
:100DD000FD000E30FE006A30FF00A03084008A154E
:100DE00011261830E9008830EA00AC30EB0088307A
:100DF000EC000130ED0083018A11F82BFF3FFF3F2B
:100E0000FF1B0A2F83137F1883170008840A031916
:100E1000FF0A08007F087F398A000408840A031942
:100E2000FF0A820000347D346434A4340D34043469
:100E3000A034783496349134873400347C3464346C
:100E4000A4340D340434A0347834873475346B34CE
:100E5000003464346434A4340D340434A034623473
:100E600087348F348C3400347B346434A4340D34B0
:100E70000434F0346934C834B434A03400346934F0
:100E80006434A4340D340434A03469348934973480
:100E90009134003480346434A4340D340434A034E8
:100EA000693489349C349734003478346434A434FD
:100EB0000D340434A0346234873478346E34003412
:100EC0009634FF34FF34FF34FF34FF34FF34FF34F3
:100ED000FF34FF34003428346434003401340134E6
:100EE0000034283401340134013420345334703454
:100EF000643420344C3469346D342034003420346C
:100F000053346C346F3470346534203420340034FE
:100F100049344E344F345634413431343034303423
:100F20000034483449344134433445343134303466
:100F30003034003455345234563441344E34313424
:100F400030343034003449344E344F345634413424
:100F5000313432343034003448344C344E34443438
:100F60005234313432343034003459344134523410
:100F70004934533431343234303400344834493411
:100F80004C345534583431343234303400344334F2
:100F900041344D34523459343134323430340034E5
:100FA00049344E344F34563441343134343430348F
:100FB0000034433441344D345234593431343434B0
:100FC0003034003450347234653476342034533441
:100FD00049344434003420345034503452342034B2
:100FE0004E3455344D34003420345034503452345F
:100FF0002034443445344E340034203449346E3483
:10100000763461346C3469346434003443346C3481
:1010100069347034203453347034643400342034F0
:1010200049346E3476346534723473346534003444
:1010300049346E34613463347434693476346534DD
:1010400000344C3469346D347034203456346C348C
:10105000743400344D3469346E34203456346F3473
:101060006C347434003443346F346E3473347434F9
:1010700061346E347434003420344C3469346D344B
:1010800020344D34613478340034523461346D345A
:10109000703420344D3461347834003420342034BA
:1010A000203420342034203420342034003444349C
:1010B0004534543445344334543445344434003492
:1010C000203449344E34563441344C344934443459
:1010D0000034433441344C342D3454344F344F3481
:1010E0004C34003420345234453451345534453472
:1010F00053345434003446344C3445344534543439
:101100004D34413458340034203420344F34463484
:101110004634203420340034333420346D34693480
:101120006E34733420340034343420346D346934F4
:101130006E34733420340034353420346D346934E3
:101140006E34733420340034363420346D346934D2
:101150006E347334203400342034413463347434B6
:101160006934763465340034533470346434203454
:10117000533469346D34003420344334753473345B
:1011800074346F346D34003431343034203453349B
:1011900065346334733400343134303420346D3486
:1011A00069346E347334003445345834503449341F
:1011B00052344534443400342034533454344F349E
:1011C00052344534443400342034533449344434A4
:1011D00020344934443400342034443445345634C3
:1011E000493443344534003453344134463445346F
:1011F0004D34413458340034203420345334613475
:10120000763465340034313420346D3469346E34CE
:1012100073340034323420346D3469346E347334B2
:101220000034373420346D3469346E347334003410
:101230002034443465346C346134793400345034AF
:1012400075346C347334653400344B346D342F345E
:1012500048347234003457345234493454344534A9
:1012600000344534523452344F34523400344B3409
:101270006D3470346834003444344134543441346F
:101280000034533445344E34543400348A11292DFB
:101290008A11312D8A11392D8A11412D8A11492D3A
:1012A0008A11512D8A11592D8A11612D8A11692DAA
:1012B0008A11712D8A11792D8A11812D8A11892D1A
:1012C0008A11912D8A11B52D8A11B7298A11C42945
:1012D0008A11C4298A11C4298A11C4298A11C429EE
:1012E0008A11C4298A11C4298A11C4298A11C429DE
:1012F0008A11C4298A11FF298A11122A8A113D29CB
:101300008A11262A8A11A3288A11B5288A11B5289C
:101310008A11B5288A11B5288A11B5288A11B528ED
:101320008A11B5288A11B5288A11B5288A11B528DD
:101330008A11EE288A1101298A11A2288A111629F8
:101340008A11C3298A113E298A1151298A116229D9
:101350008A1173298A1184298A1195298A11A6294B
:10136000FF3FFF3FFF3FFF3FFF3FFF3FFF3FFF3F8D
:10137000FF3FFF3FFF3FFF3FFF3FFF3FFF3FFF3F7D
:10138000FF3FFF3FFF3FFF3FFF3FFF3FFF3FFF3F6D
:10139000FF3FFF3FFF3FFF3FFF3FFF3FFF3FFF3F5D
:101C0000FF3F8312D101D001080064008001840AE3
:101C10000406031900340406062E7E088A007F0895
:101C200082000D268A158000840A04087D060319A7
:101C30000034FF0A0319FE0A112E8312D400640037
:101C4000831603139C181F2E8312540883169B00BF
:101C50003F309C051C1403101C180314031801309A
:101C60001A0808008A118F238A1583120130031382
:101C7000D6018A1169228A156030D6008830D700D3
:101C80008A1148228A158A11B8238A158A11692275
:101C9000EC30D6008830D7008A11482A8A118F2369
:101CA0008A15831201300313D6018A1169228A151D
:101CB0007B30D6008830D7008A1148228A158A11D5
:101CC000B8238A158A1169225730D6008830D70088
:101CD0008A11482A56348834253489345634883455
:101CE000563488341F3489341F3489345634883448
:101CF00025348934563488345634883456348834FC
:101D000084348834C4348834033489340A348934BC
:101D10008C348834943488349C348834A4348834A3
:101D200011348934CC348834BC34883491348734C9
:101D3000C734873488348734A3348734BE34873437
:101D4000B5348734AC348734DC01DD01DE01DF01DA
:101D500057085604550454040319E32EE001E00A21
:101D6000D71BB82E0310D40DD50DD60DD70DAF2E21
:101D70000310DC0DDD0DDE0DDF0D57085B02031DCA
:101D8000CB2E56085A02031DCB2E55085902031DAF
:101D9000CB2E54085802031CDD2E5408D8025508D7
:101DA000031C550FD9025608031C560FDA025708B8
:101DB000031C570FDB025C140310D70CD60CD50C98
:101DC000D40CE00BB82E5F08D7005E08D6005D0883
:101DD000D5005C08D4000800831204308613D600B6
:101DE000D60BF02EF32E0330831203138500073039
:101DF00006170613D7007D30D600D60BFD2ED70B65
:101E0000FD2E83128230031306170613D700DD3030
:101E1000D600D60B092FD70B092F0E2F83120730B0
:101E2000031306170613D7007D30D600D60B162FE6
:101E3000D70B162F02308312031385003430061798
:101E40000613D700F130D600D60B242FD70B242F42
:101E5000292F28308A11C0228A153430D700F1305A
:101E6000D600D60B312FD70B312F362F08308A11E1
:101E7000C0228A153430D700F130D600D60B3E2F61
:101E8000D70B3E2F432F0C308A11C0228A153430D5
:101E9000D700F130D600D60B4B2FD70B4B2F502F3E
:101EA00006308A11C0228A153430D700F130D600AE
:101EB000D60B582FD70B582F5D2F08008B13831686
:101EC00003138C1C872F83128C1C872F8C10C60A3F
:101ED0000319C70A00304702793003194602031C70
:101EE000732FC601C7014D0B852F03307802E930EF
:101EF00003197702031C812FF701F801CE01CE0AE6
:101F0000872FF70A0319F80A872FF701F8018316BC
:101F10000C1C982F83120C1C982F0C1010104508C5
:101F20008F0044088E0040301014850680308506EE
:101F300083168C1EEF2F83128C1EEF2F8C12F7014D
:101F4000F8015008203E84001A0883138000D0084E
:101F5000031DB82FF501F6015008203E840000084B
:101F6000A83A031DEC2F2008F500F601D00AEF2F48
:101F7000500BC82F5008203E8400A13000020318E7
:101F8000EC2F8312F9278A15F5070318F60AB62FE6
:101F90005008023A031DD12F5008203E8400213002
:101FA000BE2F03305002031CE42F2208023EF00033
:101FB000003003180130F100803A803C031DE22F0D
:101FC00070085002031CC12F8312F9278A15750669
:101FD000031DEC2FD101D10AD001F501F6018B17B9
:101FE00074088A0073088400720E8300FE0E7E0E51
:101FF000090003135008203E8400831300080800E2
:02400E00703F01
:08400000FF3FFF3FFF3FFF3FC0
:10420000FF00FF00FF00FF00FF00FF00FF00FF00B6
:10421000FF00FF00FF00FF00FF00FF00FF00FF00A6
:10422000FF00FF00FF00FF00FF00FF00FF00FF0096
:10423000FF00FF00FF00FF00FF00FF00FF00FF0086
:10424000FF00FF00FF00FF00FF00FF00FF00FF0076
:10425000FF00FF00FF00FF00FF00FF00FF00FF0066
:10426000FF00FF00FF00FF00FF00FF00FF00FF0056
:10427000FF00FF00FF00FF00FF00FF00FF00FF0046
:10428000FF00FF00FF00FF00FF00FF00FF00FF0036
:10429000FF00FF00FF00FF00FF00FF00FF00FF0026
:1042A000FF00FF00FF00FF00FF00FF00FF00FF0016
:1042B000FF00FF00FF00FF00FF00FF00FF00FF0006
:1042C000FF00FF00FF00FF00FF00FF00FF00FF00F6
:1042D000FF00FF00FF00FF00FF00FF00FF00FF00E6
:1042E000410046004D002D0030003000320031000A
:1042F000DC00DA000000F0002300B50072000000CE
:10430000FF00FF00FF00FF00FF00FF00FF00FF00B5
:10431000FF00FF00FF00FF00FF00FF00FF00FF00A5
:10432000FF00FF00FF00FF00FF00FF00FF00FF0095
:10433000FF00FF00FF00FF00FF00FF00FF00FF0085
:10434000FF00FF00FF00FF00FF00FF00FF00FF0075
:10435000FF00FF00FF00FF00FF00FF00FF00FF0065
:10436000FF00FF00FF00FF00FF00FF00FF00FF0055
:10437000FF00FF00FF00FF00FF00FF00FF00FF0045
:10438000FF00FF00FF00FF00FF00FF00FF00FF0035
:10439000FF00FF00FF00FF00FF00FF00FF00FF0025
:1043A000FF00FF00FF00FF00FF00FF00FF00FF0015
:1043B000FF00FF00FF00FF00FF00FF00FF00FF0005
:1043C000FF00FF00FF00FF00FF00FF00FF00FF00F5
:1043D000FF00FF00FF00FF00FF00FF00FF00FF00E5
:1043E000FF00FF00FF00FF00FF00FF00FF00FF00D5
:1043F000FF00FF00FF00FF00FF00FF00FF00FF00C5
:00000001FF
