:020000001028C6
:10000800FE00030E83120313CA000408CB000A087B
:10001800CC007F08CD000929CD2D162C182C1A2CC0
:100028001C2C1E2C222C242C282C2A2C2E2C302C38
:10003800342CBA2ABC2ABE2AC02AC22AC62AC82AEE
:0A004800CC2ACE2AD22AD42AD82AC4
:10020000FF0001308A007F0882070529832AD92C44
:10021000752D83168C1C202983128C1C20298C1090
:10022000BF0A0319C00A00303802653003193702CB
:10023000031C1D29C301C4012029B70A0319B80AE8
:1002400083120C1C4F2983160C1C4F29FF3083127C
:100250000C10AF07031CB007003003180130B107C2
:10026000003003180130B20700303202031D42296A
:100270000F303102031D422942303002031D422952
:1002800041302F02031C4F29B301B401B501B6015F
:10029000AF01B001B101B201BD01BE011010831662
:1002A0008C1EC22983128C1EC229B701B8014308D3
:1002B000A03E84001A0883138000C308031D75291B
:1002C000C2014308A03E84000008A03A03196F2928
:1002D0004308A03E840000089F3A031DC129C30AB9
:1002E000831620088312C200C129430B84294308C6
:1002F000A03E84004130000203188229C30A8316FD
:1003000021089229C301C1294308023A031D9529F6
:100310004308A03E84003130000203188229C30A3A
:10032000831622088312C207C129033043028316B1
:10033000031CAF2921087B22803A803C031DA2299F
:10034000460843020318AE29831203134308A03E54
:10035000840083130008C207C30AC129831603134C
:1003600021087B22430846064704031DC129430890
:10037000A03E8400831300084206031DC129C40166
:10038000C40A8C128B180B1E6F2A8B108312101844
:10039000CB291014682A10100C100F08C600C701D2
:1003A000C700C601C801C9000E084807CE000030CA
:1003B000031801304907CF00D001D1018E018F0110
:1003C00010144E08AF074F0803110318013E031D18
:1003D000B007500803110318013E031DB10751086F
:1003E00003110318013E031DB20700303202031D42
:1003F000032A00303102031D032A00303002031D9E
:10040000032A1A302F02031C682A360835043404E4
:1004100033040319332A33082F07C60000300318AA
:1004200001303407C8010318C80A3007C700031891
:10043000C80A35084807C9010318C90A3107C800A6
:100440000318C90A360849073207C9000310C90C46
:10045000C80CC70CC60C4908B6004808B5004708C8
:10046000B40046083A2A3208B6003108B500300810
:10047000B4002F08B3005D08F0005E08F100F2013F
:10048000F3015F08F400F501F601F7011A2573087E
:10049000D1007208D0007108CF007008CE00360875
:1004A000F3003508F2003408F1003308F000510879
:1004B000F7005008F6004F08F5004E08F4004C24F1
:1004C0007108BE007008BD00AF01B001B101B201FA
:1004D000450803196D2A05106F2A0130850683121D
:1004E0004D08FF004C088A004B0884004A0E830028
:1004F000FE0E7E0E0900013E8312C6000030031876
:100500000130C700080044080319842B83168C129D
:10051000782B21080F3A031D052B23088312D200E4
:1005200000309D2523088312E100831624088312DE
:10053000D20001309D2525088312D20002309D256E
:1005400024088312DE00831625088312DD0083163B
:1005500026088312D20003309D2526088312DF006F
:10056000831627088312D20004309D2527088312A2
:10057000E000DF2ABB01C42A1430C32A2830C32A72
:100580007830C32AF030BB00BC01EA2A6830C92A9F
:10059000E030BB000130DD2A5830CF2AD030BB001C
:1005A0000230DD2A4830D52AC030BB000330DD2AB6
:1005B0003830DB2AB030BB000430BC00EA2A6008C7
:1005C00084000C3004020318DA2A00308A001D303F
:1005D000040782000530D8000830D7005708A03E35
:1005E00084000008D20058089D2510308312D80AD4
:1005F000D70A5702031CEE2AA830ED250230ED255C
:100600005630ED250030ED25802BA830ED25033048
:10061000ED257F30ED251330ED253D30ED25802B88
:10062000A830ED250F30ED256230ED256108ED2570
:100630005E08ED255D08ED255F08ED256008ED25D8
:100640000530D401D501D8005808B9258312D60049
:10065000D4070318D50A5608ED250D30D80A5802DC
:10066000031C242B5E088316BA0083125D088316D0
:10067000B9003A08B900BA01831261088316390734
:10068000BB00BC01BC0D83125D0883163B07BD0097
:100690000030031801303C07BE0083125F08831648
:1006A0003D07BF000030031801303E07C000831231
:1006B000600883163F07C10000300318013040076F
:1006C000C2004108193EC30042080318013E013E22
:1006D000C40043088312D4070318D50A83164408BC
:1006E0008312D5075408ED25802B7F30ED25802B14
:1006F0002208163A0319892A343A0319102B752B4C
:100700001A0883168C16FE25A03083169B0008005D
:1007100095019601970107309F0083169A019B016E
:100720009C019F011C308500013083128500B73089
:100730008316860083128601083083168E0083128A
:100740008E018F019001FA30901210129011101149
:100750009010831692008312920119301217921290
:100760001212921592101214831699008312980196
:10077000831698018312981283169813181218156D
:100780008312181683169816831298178316810100
:1007900083128C0183168C010C14831210108316A3
:1007A0008C148312121583168C168B010A300B17CA
:1007B0000B168312D5000130D601D701D70AD80114
:1007C0004D250A30D5000230D601D701D70AD8010D
:1007D0004D253230D5000330D601D701D70AD801D4
:1007E0004D250030B9258312E1000330B92583126D
:1007F000DF000230B9258312DC000130B9258312F5
:10080000DE005C08DD000430B9258312E0005D0ADB
:1008100003195E0A031D3B2CCC30DD004030DE00A6
:100820003C30DF005030E100E0013B2CBB01202CCC
:1008300014301F2C28301F2C78301F2CF030BB00B8
:10084000BC01462C6830252CE030BB000130392C2F
:1008500058302B2CD030BB000230392C4830312C92
:10086000C030BB000330392C3830372CB030BB00DF
:100870000430BC00462C600884000C3004020318CD
:10088000362C00308A00113004078200A0308B170C
:1008900083169B0094244A2CF801F901FA01FB010C
:1008A000730872047104700403198B2CFC01FC0A98
:1008B000F31B602C0310F00DF10DF20DF30D572C0E
:1008C0000310F80DF90DFA0DFB0D73087702031DE7
:1008D000732C72087602031D732C71087502031DB8
:1008E000732C70087402031C852C7008F4027108C4
:1008F000031C710FF5027208031C720FF6027308D5
:10090000031C730FF70278140310F30CF20CF10CB4
:10091000F00CFC0B602C7B08F3007A08F2007908DD
:10092000F1007808F0000800831240083F04031922
:100930000800DB010530D2005B08DF25233E840080
:10094000013083138002840F0030031C8003800277
:1009500084030008840A0004031DCC2C0530D20057
:100960005B08DF25213E84000008D900840A0008C6
:10097000DA000530D2005B08DF25233E84005908E9
:100980008000840A5A0880000530D2005B08DF2509
:10099000203E84000008002103308312DB0A5B0242
:1009A000031C9A2C0130BF020030031CC003C0029C
:1009B000942C3E08803A803C031DE02C3D086102E7
:1009C000831203130318E92C86118514C501C50A87
:1009D00008003E08803A803C031DF02C3D0861026F
:1009E000031C102D831203136108FF3ED200FF3059
:1009F00003180030D3003E08803AD4005308803AF0
:100A00005402031D052D52083D02031C102D083011
:100A100083120313860602308506C501C50A080045
:100A20007D08831203130319172D8611182D8615BF
:100A3000C5010800F801F901FA01FB01701C342D11
:100A40007408F807750803110318013E031DF90720
:100A5000760803110318013E031DFA0777080311F6
:100A60000318013E031DFB070310F40DF50DF60DF1
:100A7000F70D0310F30CF20CF10CF00C7308720478
:100A800071047004031D1E2D7B08F3007A08F20028
:100A90007908F1007808F0000800DB000530D2008A
:100AA0004108DF25203E84005B0880000530D2002D
:100AB0004108DF25213E840055088000840A56083D
:100AC00080005708013ED90058080318013EDA009B
:100AD0000530D2004108DF25233E840059088000FC
:100AE000840A5A088000C10A08003E083D04031D1C
:100AF0008B2D600803198B2D3C083A02031D822DB3
:100B00003B0839020318882DB90A0319BA0A8E2D39
:100B1000FD01FD0A8E2DB901BA01FD01C508031DB5
:100B2000982D7D080319972D02308506982D851084
:100B30003E083D04031905140800D30083169C18D1
:100B40009E2D8312530883169B008312520883162E
:100B50009A003F309C0503108B1B031455308B13F8
:100B60001C159D00AA309D009C141C1103188B17A6
:100B70000800D2006400831603139C18BA2D831258
:100B8000520883169B003F309C051C1403101C1850
:100B90000314031801301A0808002030FD018313E4
:100BA00084004630F625A0308400B930F625283080
:100BB000DD00D530DE002830DF008301882BD40033
:100BC000D30152085418D3070310D20D0310D40CCC
:100BD000D408031DE12D530808008312D2008316A8
:100BE000981CEF2D831252089900080064008001C0
:100BF000840A0406031900340406F72D8312C40185
:080C0000C301B701B8010800AF
:02400E0062FF4F
:00000001FF
